{
  "abi": [
    {
      "inputs": [
        {
          "internalType": "uint256",
          "name": "threshold",
          "type": "uint256"
        },
        {
          "internalType": "uint256",
          "name": "duration",
          "type": "uint256"
        }
      ],
      "stateMutability": "nonpayable",
      "type": "constructor"
    },
    {
      "inputs": [],
      "name": "PHASE_DURATION",
      "outputs": [
        {
          "internalType": "uint256",
          "name": "",
          "type": "uint256"
        }
      ],
      "stateMutability": "view",
      "type": "function"
    },
    {
      "inputs": [],
      "name": "THRESHOLD",
      "outputs": [
        {
          "internalType": "uint256",
          "name": "",
          "type": "uint256"
        }
      ],
      "stateMutability": "view",
      "type": "function"
    },
    {
      "inputs": [
        {
          "internalType": "address",
          "name": "user",
          "type": "address"
        }
      ],
      "name": "allowlist",
      "outputs": [],
      "stateMutability": "nonpayable",
      "type": "function"
    },
    {
      "inputs": [],
      "name": "getBlsKeys",
      "outputs": [
        {
          "internalType": "uint256",
          "name": "",
          "type": "uint256"
        },
        {
          "internalType": "bytes[]",
          "name": "",
          "type": "bytes[]"
        }
      ],
      "stateMutability": "view",
      "type": "function"
    },
    {
      "inputs": [],
      "name": "getJustifications",
      "outputs": [
        {
          "internalType": "bytes[]",
          "name": "",
          "type": "bytes[]"
        }
      ],
      "stateMutability": "view",
      "type": "function"
    },
    {
      "inputs": [],
      "name": "getParticipants",
      "outputs": [
        {
          "internalType": "address[]",
          "name": "",
          "type": "address[]"
        }
      ],
      "stateMutability": "view",
      "type": "function"
    },
    {
      "inputs": [],
      "name": "getResponses",
      "outputs": [
        {
          "internalType": "bytes[]",
          "name": "",
          "type": "bytes[]"
        }
      ],
      "stateMutability": "view",
      "type": "function"
    },
    {
      "inputs": [],
      "name": "getShares",
      "outputs": [
        {
          "internalType": "bytes[]",
          "name": "",
          "type": "bytes[]"
        }
      ],
      "stateMutability": "view",
      "type": "function"
    },
    {
      "inputs": [],
      "name": "inPhase",
      "outputs": [
        {
          "internalType": "uint256",
          "name": "",
          "type": "uint256"
        }
      ],
      "stateMutability": "view",
      "type": "function"
    },
    {
      "inputs": [
        {
          "internalType": "address",
          "name": "",
          "type": "address"
        }
      ],
      "name": "justifications",
      "outputs": [
        {
          "internalType": "bytes",
          "name": "",
          "type": "bytes"
        }
      ],
      "stateMutability": "view",
      "type": "function"
    },
    {
      "inputs": [
        {
          "internalType": "address",
          "name": "",
          "type": "address"
        }
      ],
      "name": "keys",
      "outputs": [
        {
          "internalType": "bytes",
          "name": "",
          "type": "bytes"
        }
      ],
      "stateMutability": "view",
      "type": "function"
    },
    {
      "inputs": [],
      "name": "owner",
      "outputs": [
        {
          "internalType": "address",
          "name": "",
          "type": "address"
        }
      ],
      "stateMutability": "view",
      "type": "function"
    },
    {
      "inputs": [
        {
          "internalType": "uint256",
          "name": "",
          "type": "uint256"
        }
      ],
      "name": "participants",
      "outputs": [
        {
          "internalType": "address",
          "name": "",
          "type": "address"
        }
      ],
      "stateMutability": "view",
      "type": "function"
    },
    {
      "inputs": [
        {
          "internalType": "bytes",
          "name": "value",
          "type": "bytes"
        }
      ],
      "name": "publish",
      "outputs": [],
      "stateMutability": "nonpayable",
      "type": "function"
    },
    {
      "inputs": [
        {
          "internalType": "bytes",
          "name": "blsPublicKey",
          "type": "bytes"
        }
      ],
      "name": "register",
      "outputs": [],
      "stateMutability": "nonpayable",
      "type": "function"
    },
    {
      "inputs": [
        {
          "internalType": "address",
          "name": "",
          "type": "address"
        }
      ],
      "name": "responses",
      "outputs": [
        {
          "internalType": "bytes",
          "name": "",
          "type": "bytes"
        }
      ],
      "stateMutability": "view",
      "type": "function"
    },
    {
      "inputs": [
        {
          "internalType": "address",
          "name": "",
          "type": "address"
        }
      ],
      "name": "shares",
      "outputs": [
        {
          "internalType": "bytes",
          "name": "",
          "type": "bytes"
        }
      ],
      "stateMutability": "view",
      "type": "function"
    },
    {
      "inputs": [],
      "name": "start",
      "outputs": [],
      "stateMutability": "nonpayable",
      "type": "function"
    },
    {
      "inputs": [],
      "name": "startBlock",
      "outputs": [
        {
          "internalType": "uint256",
          "name": "",
          "type": "uint256"
        }
      ],
      "stateMutability": "view",
      "type": "function"
    },
    {
      "inputs": [
        {
          "internalType": "address",
          "name": "",
          "type": "address"
        }
      ],
      "name": "userState",
      "outputs": [
        {
          "internalType": "enum DKG.UserState",
          "name": "",
          "type": "uint8"
        }
      ],
      "stateMutability": "view",
      "type": "function"
    }
  ],
  "bytecode": {
    "object": "0x60c060405260006006553480156200001657600080fd5b50604051620027923803806200279283398181016040528101906200003c9190620000d5565b80608081815250508160a0818152505033600760006101000a81548173ffffffffffffffffffffffffffffffffffffffff021916908373ffffffffffffffffffffffffffffffffffffffff16021790555050506200011c565b600080fd5b6000819050919050565b620000af816200009a565b8114620000bb57600080fd5b50565b600081519050620000cf81620000a4565b92915050565b60008060408385031215620000ef57620000ee62000095565b5b6000620000ff85828601620000be565b92505060206200011285828601620000be565b9150509250929050565b60805160a05161261f6200017360003960008181610744015261116e0152600081816104c4015281816104f501528181610532015281816105f20152818161082b015281816109340152610a49015261261f6000f3fe608060405234801561001057600080fd5b506004361061012c5760003560e01c806382fbdc9c116100ad578063be9a655511610071578063be9a655514610336578063cc5ef00914610340578063cd5e38371461035e578063ce7c2ac21461038e578063d73fe0aa146103be5761012c565b806382fbdc9c146102a35780638da5cb5b146102bf578063a7cd52cb146102dd578063a8194596146102f9578063b0ef8179146103185761012c565b80634ae2b849116100f45780634ae2b849146101fd5780635aa68ac01461021b578063670d14b214610239578063785ffb37146102695780637fd28346146102875761012c565b80630c8f81b5146101315780630ea6564814610161578063221f95111461019157806335c1d349146101af57806348cd4cb1146101df575b600080fd5b61014b600480360381019061014691906119b8565b6103dc565b6040516101589190611a5c565b60405180910390f35b61017b600480360381019061017691906119b8565b6103fc565b6040516101889190611b10565b60405180910390f35b61019961049c565b6040516101a69190611b4b565b60405180910390f35b6101c960048036038101906101c49190611b92565b6105ab565b6040516101d69190611bce565b60405180910390f35b6101e76105ea565b6040516101f49190611b4b565b60405180910390f35b6102056105f0565b6040516102129190611b4b565b60405180910390f35b610223610614565b6040516102309190611ca7565b60405180910390f35b610253600480360381019061024e91906119b8565b6106a2565b6040516102609190611b10565b60405180910390f35b610271610742565b60405161027e9190611b4b565b60405180910390f35b6102a1600480360381019061029c9190611d2e565b610766565b005b6102bd60048036038101906102b89190611d2e565b610b9e565b005b6102c7610db2565b6040516102d49190611bce565b60405180910390f35b6102f760048036038101906102f291906119b8565b610dd8565b005b610301610fc9565b60405161030f929190611e87565b60405180910390f35b610320611197565b60405161032d9190611eb7565b60405180910390f35b61033e61133f565b005b61034861141d565b6040516103559190611eb7565b60405180910390f35b610378600480360381019061037391906119b8565b6115c5565b6040516103859190611b10565b60405180910390f35b6103a860048036038101906103a391906119b8565b611665565b6040516103b59190611b10565b60405180910390f35b6103c6611705565b6040516103d39190611eb7565b60405180910390f35b60006020528060005260406000206000915054906101000a900460ff1681565b6003602052806000526040600020600091509050805461041b90611f08565b80601f016020809104026020016040519081016040528092919081815260200182805461044790611f08565b80156104945780601f1061046957610100808354040283529160200191610494565b820191906000526020600020905b81548152906001019060200180831161047757829003601f168201915b505050505081565b600080600654036104b057600090506105a8565b6000600654436104c09190611f68565b90507f000000000000000000000000000000000000000000000000000000000000000081116104f35760019150506105a8565b7f000000000000000000000000000000000000000000000000000000000000000060026105209190611f9c565b81116105305760029150506105a8565b7f0000000000000000000000000000000000000000000000000000000000000000600361055d9190611f9c565b811161056d5760039150506105a8565b6040517f08c379a000000000000000000000000000000000000000000000000000000000815260040161059f90612053565b60405180910390fd5b90565b600581815481106105bb57600080fd5b906000526020600020016000915054906101000a900473ffffffffffffffffffffffffffffffffffffffff1681565b60065481565b7f000000000000000000000000000000000000000000000000000000000000000081565b6060600580548060200260200160405190810160405280929190818152602001828054801561069857602002820191906000526020600020905b8160009054906101000a900473ffffffffffffffffffffffffffffffffffffffff1673ffffffffffffffffffffffffffffffffffffffff168152602001906001019080831161064e575b5050505050905090565b600160205280600052604060002060009150905080546106c190611f08565b80601f01602080910402602001604051908101604052809291908181526020018280546106ed90611f08565b801561073a5780601f1061070f5761010080835404028352916020019161073a565b820191906000526020600020905b81548152906001019060200180831161071d57829003601f168201915b505050505081565b7f000000000000000000000000000000000000000000000000000000000000000081565b600280811115610779576107786119e5565b5b6000803373ffffffffffffffffffffffffffffffffffffffff1673ffffffffffffffffffffffffffffffffffffffff16815260200190815260200160002060009054906101000a900460ff1660028111156107d7576107d66119e5565b5b14610817576040517f08c379a000000000000000000000000000000000000000000000000000000000815260040161080e906120bf565b60405180910390fd5b6000600654436108279190611f68565b90507f00000000000000000000000000000000000000000000000000000000000000008111610932576000600260003373ffffffffffffffffffffffffffffffffffffffff1673ffffffffffffffffffffffffffffffffffffffff168152602001908152602001600020805461089c90611f08565b9050146108de576040517f08c379a00000000000000000000000000000000000000000000000000000000081526004016108d590612151565b60405180910390fd5b8282600260003373ffffffffffffffffffffffffffffffffffffffff1673ffffffffffffffffffffffffffffffffffffffff168152602001908152602001600020919061092c9291906118ad565b50610b99565b7f0000000000000000000000000000000000000000000000000000000000000000600261095f9190611f9c565b8111610a47576000600360003373ffffffffffffffffffffffffffffffffffffffff1673ffffffffffffffffffffffffffffffffffffffff16815260200190815260200160002080546109b190611f08565b9050146109f3576040517f08c379a00000000000000000000000000000000000000000000000000000000081526004016109ea906121e3565b60405180910390fd5b8282600360003373ffffffffffffffffffffffffffffffffffffffff1673ffffffffffffffffffffffffffffffffffffffff1681526020019081526020016000209190610a419291906118ad565b50610b98565b7f00000000000000000000000000000000000000000000000000000000000000006003610a749190611f9c565b8111610b5c576000600460003373ffffffffffffffffffffffffffffffffffffffff1673ffffffffffffffffffffffffffffffffffffffff1681526020019081526020016000208054610ac690611f08565b905014610b08576040517f08c379a0000000000000000000000000000000000000000000000000000000008152600401610aff90612275565b60405180910390fd5b8282600460003373ffffffffffffffffffffffffffffffffffffffff1673ffffffffffffffffffffffffffffffffffffffff1681526020019081526020016000209190610b569291906118ad565b50610b97565b6040517f08c379a0000000000000000000000000000000000000000000000000000000008152600401610b8e906122e1565b60405180910390fd5b5b5b505050565b600060065414610be3576040517f08c379a0000000000000000000000000000000000000000000000000000000008152600401610bda9061234d565b60405180910390fd5b60016002811115610bf757610bf66119e5565b5b6000803373ffffffffffffffffffffffffffffffffffffffff1673ffffffffffffffffffffffffffffffffffffffff16815260200190815260200160002060009054906101000a900460ff166002811115610c5557610c546119e5565b5b14610c95576040517f08c379a0000000000000000000000000000000000000000000000000000000008152600401610c8c906123df565b60405180910390fd5b6005339080600181540180825580915050600190039060005260206000200160009091909190916101000a81548173ffffffffffffffffffffffffffffffffffffffff021916908373ffffffffffffffffffffffffffffffffffffffff1602179055508181600160003373ffffffffffffffffffffffffffffffffffffffff1673ffffffffffffffffffffffffffffffffffffffff1681526020019081526020016000209190610d469291906118ad565b5060026000803373ffffffffffffffffffffffffffffffffffffffff1673ffffffffffffffffffffffffffffffffffffffff16815260200190815260200160002060006101000a81548160ff02191690836002811115610da957610da86119e5565b5b02179055505050565b600760009054906101000a900473ffffffffffffffffffffffffffffffffffffffff1681565b600060065414610e1d576040517f08c379a0000000000000000000000000000000000000000000000000000000008152600401610e149061234d565b60405180910390fd5b600760009054906101000a900473ffffffffffffffffffffffffffffffffffffffff1673ffffffffffffffffffffffffffffffffffffffff163373ffffffffffffffffffffffffffffffffffffffff1614610ead576040517f08c379a0000000000000000000000000000000000000000000000000000000008152600401610ea49061244b565b60405180910390fd5b60006002811115610ec157610ec06119e5565b5b6000808373ffffffffffffffffffffffffffffffffffffffff1673ffffffffffffffffffffffffffffffffffffffff16815260200190815260200160002060009054906101000a900460ff166002811115610f1f57610f1e6119e5565b5b14610f5f576040517f08c379a0000000000000000000000000000000000000000000000000000000008152600401610f56906124b7565b60405180910390fd5b60016000808373ffffffffffffffffffffffffffffffffffffffff1673ffffffffffffffffffffffffffffffffffffffff16815260200190815260200160002060006101000a81548160ff02191690836002811115610fc157610fc06119e5565b5b021790555050565b60006060600060058054905067ffffffffffffffff811115610fee57610fed6124d7565b5b60405190808252806020026020018201604052801561102157816020015b606081526020019060019003908161100c5790505b50905060005b60058054905081101561116b57600160006005838154811061104c5761104b612506565b5b9060005260206000200160009054906101000a900473ffffffffffffffffffffffffffffffffffffffff1673ffffffffffffffffffffffffffffffffffffffff1673ffffffffffffffffffffffffffffffffffffffff16815260200190815260200160002080546110bc90611f08565b80601f01602080910402602001604051908101604052809291908181526020018280546110e890611f08565b80156111355780601f1061110a57610100808354040283529160200191611135565b820191906000526020600020905b81548152906001019060200180831161111857829003601f168201915b505050505082828151811061114d5761114c612506565b5b6020026020010181905250808061116390612535565b915050611027565b507f00000000000000000000000000000000000000000000000000000000000000008192509250509091565b6060600060058054905067ffffffffffffffff8111156111ba576111b96124d7565b5b6040519080825280602002602001820160405280156111ed57816020015b60608152602001906001900390816111d85790505b50905060005b60058054905081101561133757600460006005838154811061121857611217612506565b5b9060005260206000200160009054906101000a900473ffffffffffffffffffffffffffffffffffffffff1673ffffffffffffffffffffffffffffffffffffffff1673ffffffffffffffffffffffffffffffffffffffff168152602001908152602001600020805461128890611f08565b80601f01602080910402602001604051908101604052809291908181526020018280546112b490611f08565b80156113015780601f106112d657610100808354040283529160200191611301565b820191906000526020600020905b8154815290600101906020018083116112e457829003601f168201915b505050505082828151811061131957611318612506565b5b6020026020010181905250808061132f90612535565b9150506111f3565b508091505090565b600060065414611384576040517f08c379a000000000000000000000000000000000000000000000000000000000815260040161137b9061234d565b60405180910390fd5b600760009054906101000a900473ffffffffffffffffffffffffffffffffffffffff1673ffffffffffffffffffffffffffffffffffffffff163373ffffffffffffffffffffffffffffffffffffffff1614611414576040517f08c379a000000000000000000000000000000000000000000000000000000000815260040161140b906125c9565b60405180910390fd5b43600681905550565b6060600060058054905067ffffffffffffffff8111156114405761143f6124d7565b5b60405190808252806020026020018201604052801561147357816020015b606081526020019060019003908161145e5790505b50905060005b6005805490508110156115bd57600360006005838154811061149e5761149d612506565b5b9060005260206000200160009054906101000a900473ffffffffffffffffffffffffffffffffffffffff1673ffffffffffffffffffffffffffffffffffffffff1673ffffffffffffffffffffffffffffffffffffffff168152602001908152602001600020805461150e90611f08565b80601f016020809104026020016040519081016040528092919081815260200182805461153a90611f08565b80156115875780601f1061155c57610100808354040283529160200191611587565b820191906000526020600020905b81548152906001019060200180831161156a57829003601f168201915b505050505082828151811061159f5761159e612506565b5b602002602001018190525080806115b590612535565b915050611479565b508091505090565b600460205280600052604060002060009150905080546115e490611f08565b80601f016020809104026020016040519081016040528092919081815260200182805461161090611f08565b801561165d5780601f106116325761010080835404028352916020019161165d565b820191906000526020600020905b81548152906001019060200180831161164057829003601f168201915b505050505081565b6002602052806000526040600020600091509050805461168490611f08565b80601f01602080910402602001604051908101604052809291908181526020018280546116b090611f08565b80156116fd5780601f106116d2576101008083540402835291602001916116fd565b820191906000526020600020905b8154815290600101906020018083116116e057829003601f168201915b505050505081565b6060600060058054905067ffffffffffffffff811115611728576117276124d7565b5b60405190808252806020026020018201604052801561175b57816020015b60608152602001906001900390816117465790505b50905060005b6005805490508110156118a557600260006005838154811061178657611785612506565b5b9060005260206000200160009054906101000a900473ffffffffffffffffffffffffffffffffffffffff1673ffffffffffffffffffffffffffffffffffffffff1673ffffffffffffffffffffffffffffffffffffffff16815260200190815260200160002080546117f690611f08565b80601f016020809104026020016040519081016040528092919081815260200182805461182290611f08565b801561186f5780601f106118445761010080835404028352916020019161186f565b820191906000526020600020905b81548152906001019060200180831161185257829003601f168201915b505050505082828151811061188757611886612506565b5b6020026020010181905250808061189d90612535565b915050611761565b508091505090565b8280546118b990611f08565b90600052602060002090601f0160209004810192826118db5760008555611922565b82601f106118f457803560ff1916838001178555611922565b82800160010185558215611922579182015b82811115611921578235825591602001919060010190611906565b5b50905061192f9190611933565b5090565b5b8082111561194c576000816000905550600101611934565b5090565b600080fd5b600080fd5b600073ffffffffffffffffffffffffffffffffffffffff82169050919050565b60006119858261195a565b9050919050565b6119958161197a565b81146119a057600080fd5b50565b6000813590506119b28161198c565b92915050565b6000602082840312156119ce576119cd611950565b5b60006119dc848285016119a3565b91505092915050565b7f4e487b7100000000000000000000000000000000000000000000000000000000600052602160045260246000fd5b60038110611a2557611a246119e5565b5b50565b6000819050611a3682611a14565b919050565b6000611a4682611a28565b9050919050565b611a5681611a3b565b82525050565b6000602082019050611a716000830184611a4d565b92915050565b600081519050919050565b600082825260208201905092915050565b60005b83811015611ab1578082015181840152602081019050611a96565b83811115611ac0576000848401525b50505050565b6000601f19601f8301169050919050565b6000611ae282611a77565b611aec8185611a82565b9350611afc818560208601611a93565b611b0581611ac6565b840191505092915050565b60006020820190508181036000830152611b2a8184611ad7565b905092915050565b6000819050919050565b611b4581611b32565b82525050565b6000602082019050611b606000830184611b3c565b92915050565b611b6f81611b32565b8114611b7a57600080fd5b50565b600081359050611b8c81611b66565b92915050565b600060208284031215611ba857611ba7611950565b5b6000611bb684828501611b7d565b91505092915050565b611bc88161197a565b82525050565b6000602082019050611be36000830184611bbf565b92915050565b600081519050919050565b600082825260208201905092915050565b6000819050602082019050919050565b611c1e8161197a565b82525050565b6000611c308383611c15565b60208301905092915050565b6000602082019050919050565b6000611c5482611be9565b611c5e8185611bf4565b9350611c6983611c05565b8060005b83811015611c9a578151611c818882611c24565b9750611c8c83611c3c565b925050600181019050611c6d565b5085935050505092915050565b60006020820190508181036000830152611cc18184611c49565b905092915050565b600080fd5b600080fd5b600080fd5b60008083601f840112611cee57611ced611cc9565b5b8235905067ffffffffffffffff811115611d0b57611d0a611cce565b5b602083019150836001820283011115611d2757611d26611cd3565b5b9250929050565b60008060208385031215611d4557611d44611950565b5b600083013567ffffffffffffffff811115611d6357611d62611955565b5b611d6f85828601611cd8565b92509250509250929050565b600081519050919050565b600082825260208201905092915050565b6000819050602082019050919050565b600082825260208201905092915050565b6000611dc382611a77565b611dcd8185611da7565b9350611ddd818560208601611a93565b611de681611ac6565b840191505092915050565b6000611dfd8383611db8565b905092915050565b6000602082019050919050565b6000611e1d82611d7b565b611e278185611d86565b935083602082028501611e3985611d97565b8060005b85811015611e755784840389528151611e568582611df1565b9450611e6183611e05565b925060208a01995050600181019050611e3d565b50829750879550505050505092915050565b6000604082019050611e9c6000830185611b3c565b8181036020830152611eae8184611e12565b90509392505050565b60006020820190508181036000830152611ed18184611e12565b905092915050565b7f4e487b7100000000000000000000000000000000000000000000000000000000600052602260045260246000fd5b60006002820490506001821680611f2057607f821691505b602082108103611f3357611f32611ed9565b5b50919050565b7f4e487b7100000000000000000000000000000000000000000000000000000000600052601160045260246000fd5b6000611f7382611b32565b9150611f7e83611b32565b925082821015611f9157611f90611f39565b5b828203905092915050565b6000611fa782611b32565b9150611fb283611b32565b9250817fffffffffffffffffffffffffffffffffffffffffffffffffffffffffffffffff0483118215151615611feb57611fea611f39565b5b828202905092915050565b600082825260208201905092915050565b7f444b4720456e6465640000000000000000000000000000000000000000000000600082015250565b600061203d600983611ff6565b915061204882612007565b602082019050919050565b6000602082019050818103600083015261206c81612030565b9050919050565b7f796f7520617265206e6f74207265676973746572656421000000000000000000600082015250565b60006120a9601783611ff6565b91506120b482612073565b602082019050919050565b600060208201905081810360008301526120d88161209c565b9050919050565b7f796f75206861766520616c7265616479207075626c697368656420796f75722060008201527f7368617265730000000000000000000000000000000000000000000000000000602082015250565b600061213b602683611ff6565b9150612146826120df565b604082019050919050565b6000602082019050818103600083015261216a8161212e565b9050919050565b7f796f75206861766520616c7265616479207075626c697368656420796f75722060008201527f726573706f6e7365730000000000000000000000000000000000000000000000602082015250565b60006121cd602983611ff6565b91506121d882612171565b604082019050919050565b600060208201905081810360008301526121fc816121c0565b9050919050565b7f796f75206861766520616c7265616479207075626c697368656420796f75722060008201527f6a757374696669636174696f6e73000000000000000000000000000000000000602082015250565b600061225f602e83611ff6565b915061226a82612203565b604082019050919050565b6000602082019050818103600083015261228e81612252565b9050919050565b7f444b472068617320656e64656400000000000000000000000000000000000000600082015250565b60006122cb600d83611ff6565b91506122d682612295565b602082019050919050565b600060208201905081810360008301526122fa816122be565b9050919050565b7f444b472068617320616c72656164792073746172746564000000000000000000600082015250565b6000612337601783611ff6565b915061234282612301565b602082019050919050565b600060208201905081810360008301526123668161232a565b9050919050565b7f75736572206973206e6f7420616c6c6f776c6973746564206f7220686173206160008201527f6c72656164792072656769737465726564000000000000000000000000000000602082015250565b60006123c9603183611ff6565b91506123d48261236d565b604082019050919050565b600060208201905081810360008301526123f8816123bc565b9050919050565b7f6f6e6c79206f776e6572206d617920616c6c6f776c6973742075736572730000600082015250565b6000612435601e83611ff6565b9150612440826123ff565b602082019050919050565b6000602082019050818103600083015261246481612428565b9050919050565b7f7573657220697320616c726561647920616c6c6f776c69737465640000000000600082015250565b60006124a1601b83611ff6565b91506124ac8261246b565b602082019050919050565b600060208201905081810360008301526124d081612494565b9050919050565b7f4e487b7100000000000000000000000000000000000000000000000000000000600052604160045260246000fd5b7f4e487b7100000000000000000000000000000000000000000000000000000000600052603260045260246000fd5b600061254082611b32565b91507fffffffffffffffffffffffffffffffffffffffffffffffffffffffffffffffff820361257257612571611f39565b5b600182019050919050565b7f6f6e6c79206f776e6572206d61792073746172742074686520444b4700000000600082015250565b60006125b3601c83611ff6565b91506125be8261257d565b602082019050919050565b600060208201905081810360008301526125e2816125a6565b905091905056fea2646970667358221220259803169200354c0c9425cdfcc6c486d001a12780b0f4b13fdeb44450b12c6764736f6c634300080d0033",
    "linkReferences": {}
  }
}